{
  "_format": "hh-sol-artifact-1",
  "contractName": "TokenTwo",
  "sourceName": "contracts/TokenTwo.sol",
  "abi": [
    {
      "inputs": [
        {
          "internalType": "address",
          "name": "owner",
          "type": "address"
        }
      ],
      "name": "balanceOf",
      "outputs": [
        {
          "internalType": "uint256",
          "name": "",
          "type": "uint256"
        }
      ],
      "stateMutability": "view",
      "type": "function"
    },
    {
      "inputs": [
        {
          "internalType": "address",
          "name": "owner",
          "type": "address"
        },
        {
          "internalType": "uint256",
          "name": "amount",
          "type": "uint256"
        }
      ],
      "name": "setBalance",
      "outputs": [],
      "stateMutability": "nonpayable",
      "type": "function"
    }
  ],
  "bytecode": "0x608060405234801561001057600080fd5b5061027c806100206000396000f3fe608060405234801561001057600080fd5b50600436106100365760003560e01c806370a082311461003b578063e30443bc1461006b575b600080fd5b61005560048036038101906100509190610179565b610087565b60405161006291906101bf565b60405180910390f35b61008560048036038101906100809190610206565b6100cf565b005b60008060008373ffffffffffffffffffffffffffffffffffffffff1673ffffffffffffffffffffffffffffffffffffffff168152602001908152602001600020549050919050565b806000808473ffffffffffffffffffffffffffffffffffffffff1673ffffffffffffffffffffffffffffffffffffffff168152602001908152602001600020819055505050565b600080fd5b600073ffffffffffffffffffffffffffffffffffffffff82169050919050565b60006101468261011b565b9050919050565b6101568161013b565b811461016157600080fd5b50565b6000813590506101738161014d565b92915050565b60006020828403121561018f5761018e610116565b5b600061019d84828501610164565b91505092915050565b6000819050919050565b6101b9816101a6565b82525050565b60006020820190506101d460008301846101b0565b92915050565b6101e3816101a6565b81146101ee57600080fd5b50565b600081359050610200816101da565b92915050565b6000806040838503121561021d5761021c610116565b5b600061022b85828601610164565b925050602061023c858286016101f1565b915050925092905056fea26469706673582212206506bcd1da8c0dbbecf2202a971597de5cb46cf7c5ae76e170a16449a6ff823964736f6c63430008110033",
  "linkReferences": {},
  "deployedLinkReferences": {}
}