{
  "_format": "hh-sol-artifact-1",
  "contractName": "UtilContract",
  "sourceName": "contracts/UtilContract.sol",
  "abi": [
    {
      "inputs": [
        {
          "internalType": "contract TokenOne",
          "name": "tokenOne",
          "type": "address"
        },
        {
          "internalType": "contract TokenTwo",
          "name": "tokenTwo",
          "type": "address"
        }
      ],
      "stateMutability": "nonpayable",
      "type": "constructor"
    },
    {
      "inputs": [
        {
          "internalType": "address",
          "name": "owner",
          "type": "address"
        },
        {
          "internalType": "address[]",
          "name": "tokensList",
          "type": "address[]"
        }
      ],
      "name": "getBalances",
      "outputs": [
        {
          "components": [
            {
              "internalType": "address",
              "name": "token",
              "type": "address"
            },
            {
              "internalType": "uint256",
              "name": "amount",
              "type": "uint256"
            }
          ],
          "internalType": "struct TokenBalance[]",
          "name": "",
          "type": "tuple[]"
        }
      ],
      "stateMutability": "view",
      "type": "function"
    }
  ],
  "bytecode": "0x608060405234801561001057600080fd5b506040516109863803806109868339818101604052810190610032919061016d565b816000806101000a81548173ffffffffffffffffffffffffffffffffffffffff021916908373ffffffffffffffffffffffffffffffffffffffff16021790555080600160006101000a81548173ffffffffffffffffffffffffffffffffffffffff021916908373ffffffffffffffffffffffffffffffffffffffff16021790555050506101ad565b600080fd5b600073ffffffffffffffffffffffffffffffffffffffff82169050919050565b60006100ea826100bf565b9050919050565b60006100fc826100df565b9050919050565b61010c816100f1565b811461011757600080fd5b50565b60008151905061012981610103565b92915050565b600061013a826100df565b9050919050565b61014a8161012f565b811461015557600080fd5b50565b60008151905061016781610141565b92915050565b60008060408385031215610184576101836100ba565b5b60006101928582860161011a565b92505060206101a385828601610158565b9150509250929050565b6107ca806101bc6000396000f3fe608060405234801561001057600080fd5b506004361061002b5760003560e01c80636a385ae914610030575b600080fd5b61004a60048036038101906100459190610487565b610060565b60405161005791906105ed565b60405180910390f35b606060008383905067ffffffffffffffff8111156100815761008061060f565b5b6040519080825280602002602001820160405280156100ba57816020015b6100a761038a565b81526020019060019003908161009f5790505b50905060005b848490508110156101845760006100fe878787858181106100e4576100e361063e565b5b90506020020160208101906100f9919061066d565b610190565b9050604051806040016040528087878581811061011e5761011d61063e565b5b9050602002016020810190610133919061066d565b73ffffffffffffffffffffffffffffffffffffffff168152602001828152508383815181106101655761016461063e565b5b602002602001018190525050808061017c906106c9565b9150506100c0565b50809150509392505050565b60008060009054906101000a900473ffffffffffffffffffffffffffffffffffffffff1673ffffffffffffffffffffffffffffffffffffffff168273ffffffffffffffffffffffffffffffffffffffff16036102875760008054906101000a900473ffffffffffffffffffffffffffffffffffffffff1673ffffffffffffffffffffffffffffffffffffffff166370a08231846040518263ffffffff1660e01b815260040161023f9190610720565b602060405180830381865afa15801561025c573d6000803e3d6000fd5b505050506040513d601f19601f820116820180604052508101906102809190610767565b9050610384565b600160009054906101000a900473ffffffffffffffffffffffffffffffffffffffff1673ffffffffffffffffffffffffffffffffffffffff168273ffffffffffffffffffffffffffffffffffffffff160361037f57600160009054906101000a900473ffffffffffffffffffffffffffffffffffffffff1673ffffffffffffffffffffffffffffffffffffffff166370a08231846040518263ffffffff1660e01b81526004016103379190610720565b602060405180830381865afa158015610354573d6000803e3d6000fd5b505050506040513d601f19601f820116820180604052508101906103789190610767565b9050610384565b600090505b92915050565b6040518060400160405280600073ffffffffffffffffffffffffffffffffffffffff168152602001600081525090565b600080fd5b600080fd5b600073ffffffffffffffffffffffffffffffffffffffff82169050919050565b60006103ef826103c4565b9050919050565b6103ff816103e4565b811461040a57600080fd5b50565b60008135905061041c816103f6565b92915050565b600080fd5b600080fd5b600080fd5b60008083601f84011261044757610446610422565b5b8235905067ffffffffffffffff81111561046457610463610427565b5b6020830191508360208202830111156104805761047f61042c565b5b9250929050565b6000806000604084860312156104a05761049f6103ba565b5b60006104ae8682870161040d565b935050602084013567ffffffffffffffff8111156104cf576104ce6103bf565b5b6104db86828701610431565b92509250509250925092565b600081519050919050565b600082825260208201905092915050565b6000819050602082019050919050565b61051c816103e4565b82525050565b6000819050919050565b61053581610522565b82525050565b6040820160008201516105516000850182610513565b506020820151610564602085018261052c565b50505050565b6000610576838361053b565b60408301905092915050565b6000602082019050919050565b600061059a826104e7565b6105a481856104f2565b93506105af83610503565b8060005b838110156105e05781516105c7888261056a565b97506105d283610582565b9250506001810190506105b3565b5085935050505092915050565b60006020820190508181036000830152610607818461058f565b905092915050565b7f4e487b7100000000000000000000000000000000000000000000000000000000600052604160045260246000fd5b7f4e487b7100000000000000000000000000000000000000000000000000000000600052603260045260246000fd5b600060208284031215610683576106826103ba565b5b60006106918482850161040d565b91505092915050565b7f4e487b7100000000000000000000000000000000000000000000000000000000600052601160045260246000fd5b60006106d482610522565b91507fffffffffffffffffffffffffffffffffffffffffffffffffffffffffffffffff82036107065761070561069a565b5b600182019050919050565b61071a816103e4565b82525050565b60006020820190506107356000830184610711565b92915050565b61074481610522565b811461074f57600080fd5b50565b6000815190506107618161073b565b92915050565b60006020828403121561077d5761077c6103ba565b5b600061078b84828501610752565b9150509291505056fea26469706673582212204ba212d8096c759b32111d77baed0bfae2e1bb6e67d1a0176078c8f0299c158f64736f6c63430008110033",
  "linkReferences": {},
  "deployedLinkReferences": {}
}